{
  "contractName": "Bet2",
  "abi": [
    {
      "anonymous": false,
      "inputs": [
        {
          "indexed": false,
          "internalType": "address",
          "name": "from",
          "type": "address"
        },
        {
          "indexed": false,
          "internalType": "uint256",
          "name": "amount",
          "type": "uint256"
        },
        {
          "indexed": false,
          "internalType": "string",
          "name": "inoviceid",
          "type": "string"
        }
      ],
      "name": "userRecharge",
      "type": "event"
    },
    {
      "inputs": [
        {
          "internalType": "string",
          "name": "inoviceid",
          "type": "string"
        }
      ],
      "name": "recharge",
      "outputs": [
        {
          "internalType": "uint256",
          "name": "",
          "type": "uint256"
        }
      ],
      "stateMutability": "payable",
      "type": "function"
    }
  ],
  "bytecode": "0x608060405234801561001057600080fd5b506103ca806100206000396000f3fe60806040526004361061001e5760003560e01c8063a80dca5714610023575b600080fd5b61003d60048036038101906100389190610210565b610053565b60405161004a9190610272565b60405180910390f35b6000803411156100a1577f37f13958dc2296b4161b9948b081c197c9f311378294de8a778984287fd180f333348460405161009093929190610356565b60405180910390a1600190506100b1565b60006100ac57600080fd5b600090505b919050565b6000604051905090565b600080fd5b600080fd5b600080fd5b600080fd5b6000601f19601f8301169050919050565b7f4e487b7100000000000000000000000000000000000000000000000000000000600052604160045260246000fd5b61011d826100d4565b810181811067ffffffffffffffff8211171561013c5761013b6100e5565b5b80604052505050565b600061014f6100b6565b905061015b8282610114565b919050565b600067ffffffffffffffff82111561017b5761017a6100e5565b5b610184826100d4565b9050602081019050919050565b82818337600083830152505050565b60006101b36101ae84610160565b610145565b9050828152602081018484840111156101cf576101ce6100cf565b5b6101da848285610191565b509392505050565b600082601f8301126101f7576101f66100ca565b5b81356102078482602086016101a0565b91505092915050565b600060208284031215610226576102256100c0565b5b600082013567ffffffffffffffff811115610244576102436100c5565b5b610250848285016101e2565b91505092915050565b6000819050919050565b61026c81610259565b82525050565b60006020820190506102876000830184610263565b92915050565b600073ffffffffffffffffffffffffffffffffffffffff82169050919050565b60006102b88261028d565b9050919050565b6102c8816102ad565b82525050565b600081519050919050565b600082825260208201905092915050565b60005b838110156103085780820151818401526020810190506102ed565b83811115610317576000848401525b50505050565b6000610328826102ce565b61033281856102d9565b93506103428185602086016102ea565b61034b816100d4565b840191505092915050565b600060608201905061036b60008301866102bf565b6103786020830185610263565b818103604083015261038a818461031d565b905094935050505056fea26469706673582212203b141c501eb6f15aed9daf78df64f6f0802b32e4dced5791d26e86e7fe0f564164736f6c634300080e0033",
  "immutableReferences": {},
  "source": "// SPDX-License-Identifier: GPL-3.0\n\npragma solidity >=0.7.0 <0.9.0;\n\ncontract Bet2 {\n\n    event userRecharge(address from, uint256 amount, string inoviceid);\n\n    function recharge(string memory inoviceid) public payable returns (uint256) {\n        //require(false);\n        if (msg.value > 0) {\n            emit userRecharge(msg.sender, msg.value, inoviceid);\n            return 1;\n        } else {\n            require(false);\n            return 0;\n        }\n    }\n\n  \n}\n",
  "sourcePath": "/home/david/dapp/contracts/Bet2.sol",
  "compiler": {
    "name": "solc",
    "version": "0.8.14+commit.80d49f37.Emscripten.clang"
  },
  "schemaVersion": "3.4.7",
  "updatedAt": "2022-06-24T23:55:09.905Z",
  "networkType": "ethereum",
  "devdoc": {
    "kind": "dev",
    "methods": {},
    "version": 1
  },
  "userdoc": {
    "kind": "user",
    "methods": {},
    "version": 1
  }
}