{
  "contractName": "Bingo",
  "abi": [
    {
      "anonymous": false,
      "inputs": [
        {
          "indexed": false,
          "internalType": "uint256",
          "name": "cardId",
          "type": "uint256"
        }
      ],
      "name": "cardId",
      "type": "event"
    },
    {
      "anonymous": false,
      "inputs": [
        {
          "indexed": false,
          "internalType": "address",
          "name": "from",
          "type": "address"
        },
        {
          "indexed": false,
          "internalType": "uint256",
          "name": "amount",
          "type": "uint256"
        },
        {
          "indexed": false,
          "internalType": "uint256",
          "name": "adviceId",
          "type": "uint256"
        }
      ],
      "name": "userTrnasferAmount",
      "type": "event"
    },
    {
      "inputs": [],
      "name": "balanceContrat",
      "outputs": [
        {
          "internalType": "uint256",
          "name": "",
          "type": "uint256"
        }
      ],
      "stateMutability": "view",
      "type": "function"
    },
    {
      "inputs": [
        {
          "internalType": "uint256",
          "name": "",
          "type": "uint256"
        }
      ],
      "name": "cards",
      "outputs": [
        {
          "internalType": "address",
          "name": "",
          "type": "address"
        }
      ],
      "stateMutability": "view",
      "type": "function"
    },
    {
      "inputs": [
        {
          "internalType": "address",
          "name": "",
          "type": "address"
        }
      ],
      "name": "countCarsByAddress",
      "outputs": [
        {
          "internalType": "uint256",
          "name": "",
          "type": "uint256"
        }
      ],
      "stateMutability": "view",
      "type": "function"
    },
    {
      "inputs": [],
      "name": "isReceiver",
      "outputs": [
        {
          "internalType": "bool",
          "name": "",
          "type": "bool"
        }
      ],
      "stateMutability": "view",
      "type": "function"
    },
    {
      "inputs": [],
      "name": "numCard",
      "outputs": [
        {
          "internalType": "uint256",
          "name": "",
          "type": "uint256"
        }
      ],
      "stateMutability": "view",
      "type": "function"
    },
    {
      "stateMutability": "payable",
      "type": "receive"
    },
    {
      "inputs": [],
      "name": "buyCard",
      "outputs": [
        {
          "internalType": "uint256",
          "name": "",
          "type": "uint256"
        }
      ],
      "stateMutability": "payable",
      "type": "function"
    },
    {
      "inputs": [
        {
          "internalType": "address",
          "name": "_addres",
          "type": "address"
        }
      ],
      "name": "getCardsByAddress",
      "outputs": [
        {
          "internalType": "uint256",
          "name": "",
          "type": "uint256"
        }
      ],
      "stateMutability": "view",
      "type": "function"
    },
    {
      "inputs": [
        {
          "internalType": "address",
          "name": "_addres",
          "type": "address"
        },
        {
          "internalType": "uint256",
          "name": "_amount",
          "type": "uint256"
        }
      ],
      "name": "setCardsByAddress",
      "outputs": [],
      "stateMutability": "nonpayable",
      "type": "function"
    },
    {
      "inputs": [
        {
          "internalType": "address payable",
          "name": "_to",
          "type": "address"
        },
        {
          "internalType": "uint256",
          "name": "amount",
          "type": "uint256"
        }
      ],
      "name": "sendMoneyToWinner",
      "outputs": [],
      "stateMutability": "nonpayable",
      "type": "function"
    },
    {
      "inputs": [
        {
          "internalType": "address payable",
          "name": "_to",
          "type": "address"
        },
        {
          "internalType": "uint256",
          "name": "amount",
          "type": "uint256"
        }
      ],
      "name": "sendMoneyToWinnerInWei",
      "outputs": [],
      "stateMutability": "nonpayable",
      "type": "function"
    },
    {
      "inputs": [],
      "name": "getBalance",
      "outputs": [
        {
          "internalType": "uint256",
          "name": "",
          "type": "uint256"
        }
      ],
      "stateMutability": "view",
      "type": "function"
    }
  ],
  "bytecode": "0x6080604052600060015534801561001557600080fd5b506109f3806100256000396000f3fe6080604052600436106100a05760003560e01c80638dc10768116100645780638dc1076814610197578063bdc0779a146101d4578063c80bfaff146101f2578063e5b92dad1461021d578063fa349eeb1461025a578063fabcf66314610285576100c1565b806305e9cd5d146100c657806312065fe0146100ef57806332edecd51461011a57806368b330351461014357806372ee7f6e1461016c576100c1565b366100c1576001600460006101000a81548160ff0219169083151502179055005b600080fd5b3480156100d257600080fd5b506100ed60048036038101906100e89190610618565b6102c2565b005b3480156100fb57600080fd5b50610104610320565b6040516101119190610667565b60405180910390f35b34801561012657600080fd5b50610141600480360381019061013c91906106c0565b61033b565b005b34801561014f57600080fd5b5061016a60048036038101906101659190610618565b610383565b005b34801561017857600080fd5b506101816103ce565b60405161018e919061071b565b60405180910390f35b3480156101a357600080fd5b506101be60048036038101906101b99190610736565b6103e1565b6040516101cb9190610772565b60405180910390f35b6101dc610414565b6040516101e99190610667565b60405180910390f35b3480156101fe57600080fd5b50610207610512565b6040516102149190610667565b60405180910390f35b34801561022957600080fd5b50610244600480360381019061023f919061078d565b610518565b6040516102519190610667565b60405180910390f35b34801561026657600080fd5b5061026f610530565b60405161027c9190610667565b60405180910390f35b34801561029157600080fd5b506102ac60048036038101906102a7919061078d565b610536565b6040516102b99190610667565b60405180910390f35b8173ffffffffffffffffffffffffffffffffffffffff166108fc670de0b6b3a7640000836102f091906107e9565b9081150290604051600060405180830381858888f1935050505015801561031b573d6000803e3d6000fd5b505050565b6000670de0b6b3a7640000476103369190610872565b905090565b80600360003373ffffffffffffffffffffffffffffffffffffffff1673ffffffffffffffffffffffffffffffffffffffff168152602001908152602001600020819055505050565b8173ffffffffffffffffffffffffffffffffffffffff166108fc829081150290604051600060405180830381858888f193505050501580156103c9573d6000803e3d6000fd5b505050565b600460009054906101000a900460ff1681565b60026020528060005260406000206000915054906101000a900473ffffffffffffffffffffffffffffffffffffffff1681565b6000803411156104ff57600060015490503360026000600154815260200190815260200160002060006101000a81548173ffffffffffffffffffffffffffffffffffffffff021916908373ffffffffffffffffffffffffffffffffffffffff160217905550600180600082825461048b91906108a3565b92505081905550600061049d33610536565b905080806104aa906108f9565b9150506104b7338261033b565b7f546cce49f598101dc5533b3f81ca89a2093fe32d55234050f9f9481ed039249f33346201e2406040516104ed93929190610986565b60405180910390a1809250505061050f565b600061050a57600080fd5b600090505b90565b60015481565b60036020528060005260406000206000915090505481565b60005481565b6000600360008373ffffffffffffffffffffffffffffffffffffffff1673ffffffffffffffffffffffffffffffffffffffff168152602001908152602001600020549050919050565b600080fd5b600073ffffffffffffffffffffffffffffffffffffffff82169050919050565b60006105af82610584565b9050919050565b6105bf816105a4565b81146105ca57600080fd5b50565b6000813590506105dc816105b6565b92915050565b6000819050919050565b6105f5816105e2565b811461060057600080fd5b50565b600081359050610612816105ec565b92915050565b6000806040838503121561062f5761062e61057f565b5b600061063d858286016105cd565b925050602061064e85828601610603565b9150509250929050565b610661816105e2565b82525050565b600060208201905061067c6000830184610658565b92915050565b600061068d82610584565b9050919050565b61069d81610682565b81146106a857600080fd5b50565b6000813590506106ba81610694565b92915050565b600080604083850312156106d7576106d661057f565b5b60006106e5858286016106ab565b92505060206106f685828601610603565b9150509250929050565b60008115159050919050565b61071581610700565b82525050565b6000602082019050610730600083018461070c565b92915050565b60006020828403121561074c5761074b61057f565b5b600061075a84828501610603565b91505092915050565b61076c81610682565b82525050565b60006020820190506107876000830184610763565b92915050565b6000602082840312156107a3576107a261057f565b5b60006107b1848285016106ab565b91505092915050565b7f4e487b7100000000000000000000000000000000000000000000000000000000600052601160045260246000fd5b60006107f4826105e2565b91506107ff836105e2565b9250817fffffffffffffffffffffffffffffffffffffffffffffffffffffffffffffffff0483118215151615610838576108376107ba565b5b828202905092915050565b7f4e487b7100000000000000000000000000000000000000000000000000000000600052601260045260246000fd5b600061087d826105e2565b9150610888836105e2565b92508261089857610897610843565b5b828204905092915050565b60006108ae826105e2565b91506108b9836105e2565b9250827fffffffffffffffffffffffffffffffffffffffffffffffffffffffffffffffff038211156108ee576108ed6107ba565b5b828201905092915050565b6000610904826105e2565b91507fffffffffffffffffffffffffffffffffffffffffffffffffffffffffffffffff8203610936576109356107ba565b5b600182019050919050565b6000819050919050565b6000819050919050565b600061097061096b61096684610941565b61094b565b6105e2565b9050919050565b61098081610955565b82525050565b600060608201905061099b6000830186610763565b6109a86020830185610658565b6109b56040830184610977565b94935050505056fea2646970667358221220e0b0bc616f7acea434c51e3ab17607db92db69413c1c0cdcd0100e7a2065727064736f6c634300080e0033",
  "immutableReferences": {},
  "source": "// SPDX-License-Identifier: GPL-3.0\n\npragma solidity >=0.7.0 <0.9.0;\n\n\ncontract Bingo{\n\n    uint256 public balanceContrat;\n    uint256 public numCard = 0;\n    mapping(uint256=>address) public cards;\n    mapping(address=>uint256) public countCarsByAddress;\n    bool public isReceiver;\n\n    event cardId(uint256 cardId); \n    event userTrnasferAmount(address from,uint amount,uint adviceId);\n    \n    function buyCard() public payable returns (uint256){\n       //require(false);\n       if(msg.value > 0){\n        uint256 _num = numCard;\n        cards[numCard]=msg.sender;\n        numCard+=1;\n        uint _numCardsAddress = getCardsByAddress(msg.sender);\n        _numCardsAddress++;\n        setCardsByAddress(msg.sender, _numCardsAddress);\n        emit userTrnasferAmount(msg.sender, msg.value, 123456);\n        return _numCardsAddress;\n       }else{\n           require(false);\n           return 0;\n       }\n    }\n    \n    function getCardsByAddress(address _addres) public view returns (uint256) {\n        return countCarsByAddress[_addres];\n    }\n\n    function setCardsByAddress(address _addres,uint256 _amount) public  {\n      \n        countCarsByAddress[msg.sender] = _amount;\n\n    }\n    function sendMoneyToWinner(address payable _to,uint256 amount) public {\n        payable(_to).transfer(amount *10 ** 18);\n       \n    }\n\n    function sendMoneyToWinnerInWei(address payable _to,uint256 amount) public {\n        payable(_to).transfer(amount);\n       \n    }\n\n    function getBalance()public view returns (uint256){\n       return address(this).balance / (10**18);\n    }\n    \n    receive() external payable{\n        isReceiver = true;\n    }\n}",
  "sourcePath": "/home/david/dapp/contracts/Bingo.sol",
  "compiler": {
    "name": "solc",
    "version": "0.8.14+commit.80d49f37.Emscripten.clang"
  },
  "schemaVersion": "3.4.7",
  "updatedAt": "2022-06-24T23:55:09.166Z",
  "networkType": "ethereum",
  "devdoc": {
    "kind": "dev",
    "methods": {},
    "version": 1
  },
  "userdoc": {
    "kind": "user",
    "methods": {},
    "version": 1
  }
}