{
  "contractName": "ContratoA",
  "abi": [
    {
      "stateMutability": "payable",
      "type": "fallback",
      "payable": true
    },
    {
      "inputs": [],
      "name": "functionName",
      "outputs": [
        {
          "internalType": "string",
          "name": "",
          "type": "string"
        }
      ],
      "stateMutability": "view",
      "type": "function",
      "constant": true
    },
    {
      "inputs": [],
      "name": "number",
      "outputs": [
        {
          "internalType": "uint256",
          "name": "",
          "type": "uint256"
        }
      ],
      "stateMutability": "view",
      "type": "function",
      "constant": true
    },
    {
      "stateMutability": "payable",
      "type": "receive",
      "payable": true
    },
    {
      "inputs": [],
      "name": "balance",
      "outputs": [
        {
          "internalType": "uint256",
          "name": "",
          "type": "uint256"
        }
      ],
      "stateMutability": "view",
      "type": "function",
      "constant": true
    },
    {
      "inputs": [
        {
          "internalType": "uint256",
          "name": "num",
          "type": "uint256"
        }
      ],
      "name": "setNumber",
      "outputs": [],
      "stateMutability": "payable",
      "type": "function",
      "payable": true
    }
  ],
  "bytecode": "0x608060405234801561001057600080fd5b506104f7806100206000396000f3fe6080604052600436106100435760003560e01c80633fb5c1cb146100e25780638381f58a146100fe578063b69ef8a814610129578063d7d150591461015457610095565b36610095576040518060400160405280600781526020017f726563656976650000000000000000000000000000000000000000000000000081525060019080519060200190610093929190610271565b005b6040518060400160405280600881526020017f66616c6c6261636b000000000000000000000000000000000000000000000000815250600190805190602001906100e0929190610271565b005b6100fc60048036038101906100f7919061034f565b61017f565b005b34801561010a57600080fd5b506101136101d5565b604051610120919061038b565b60405180910390f35b34801561013557600080fd5b5061013e6101db565b60405161014b919061038b565b60405180910390f35b34801561016057600080fd5b506101696101e3565b604051610176919061043f565b60405180910390f35b806000819055506040518060400160405280600981526020017f7365744e756d6265720000000000000000000000000000000000000000000000815250600190805190602001906101d1929190610271565b5050565b60005481565b600047905090565b600180546101f090610490565b80601f016020809104026020016040519081016040528092919081815260200182805461021c90610490565b80156102695780601f1061023e57610100808354040283529160200191610269565b820191906000526020600020905b81548152906001019060200180831161024c57829003601f168201915b505050505081565b82805461027d90610490565b90600052602060002090601f01602090048101928261029f57600085556102e6565b82601f106102b857805160ff19168380011785556102e6565b828001600101855582156102e6579182015b828111156102e55782518255916020019190600101906102ca565b5b5090506102f391906102f7565b5090565b5b808211156103105760008160009055506001016102f8565b5090565b600080fd5b6000819050919050565b61032c81610319565b811461033757600080fd5b50565b60008135905061034981610323565b92915050565b60006020828403121561036557610364610314565b5b60006103738482850161033a565b91505092915050565b61038581610319565b82525050565b60006020820190506103a0600083018461037c565b92915050565b600081519050919050565b600082825260208201905092915050565b60005b838110156103e05780820151818401526020810190506103c5565b838111156103ef576000848401525b50505050565b6000601f19601f8301169050919050565b6000610411826103a6565b61041b81856103b1565b935061042b8185602086016103c2565b610434816103f5565b840191505092915050565b600060208201905081810360008301526104598184610406565b905092915050565b7f4e487b7100000000000000000000000000000000000000000000000000000000600052602260045260246000fd5b600060028204905060018216806104a857607f821691505b6020821081036104bb576104ba610461565b5b5091905056fea2646970667358221220a0631fec1dddc75f00d3baa637b776e2640f2e28ba8a3212eaab85fb7af8f21b64736f6c634300080e0033",
  "immutableReferences": {},
  "source": "// SPDX-License-Identifier: MIT\npragma solidity >=0.4.22 <0.9.0;\n\ncontract ContratoA {\n    uint256 public number;\n    string public functionName;\n\n    function balance() public view returns (uint256) {\n        return address(this).balance;\n    }\n\n    function setNumber(uint256 num) public payable {\n        number = num;\n        functionName = \"setNumber\";\n    }\n\n    receive() external payable {\n        functionName = \"receive\";\n    }\n\n    fallback() external payable {\n        functionName = \"fallback\";\n    }\n}\n",
  "sourcePath": "/home/david/dapp/contracts/ContratoA.sol",
  "compiler": {
    "name": "solc",
    "version": "0.8.14+commit.80d49f37.Emscripten.clang"
  },
  "schemaVersion": "3.4.7",
  "updatedAt": "2022-06-24T23:55:09.148Z",
  "networkType": "ethereum",
  "devdoc": {
    "kind": "dev",
    "methods": {},
    "version": 1
  },
  "userdoc": {
    "kind": "user",
    "methods": {},
    "version": 1
  }
}